:020000040800F2
:10000000504400200D020008ED2A000811150008D8
:1000100095150008E9080008D77D000800000000D9
:100020000000000000000000000000004330000855
:100030001B0E000800000000752B00080D3600089C
:1000400027020008270200082702000827020008EC
:100050002702000827020008270200086D0E00088A
:10006000BD0E000827020008270200087D0B0008CB
:10007000270200082702000827020008DD0B0008FD
:1000800027020008270200082702000827020008AC
:10009000270200082702000827020008270200089C
:1000A0002702000875390008270200082702000807
:1000B000270200082702000827020008270200087C
:1000C000270200082702000827020008270200086C
:1000D000270200082702000827020008457B0008C5
:1000E000350E000827020008270200082702000832
:1000F000270200082702000827020008270200083C
:10010000270200082702000827020008270200082B
:10011000270200082702000827020008270200081B
:10012000270200082702000827020008270200080B
:1001300000F002F800F05AF80AA090E8000C82449F
:100140008344AAF10107DA4501D100F04FF8AFF27C
:10015000090EBAE80F0013F0010F18BFFB1A43F0A5
:1001600001031847B4F90000D4F900000A444FF025
:10017000000C10F8013B13F0070408BF10F8014B06
:100180001D1108BF10F8015B641E05D010F8016B4B
:10019000641E01F8016BF9D113F0080F1EBF10F8AF
:1001A000014BAD1C0C1B09D16D1E58BF01F801CBD2
:1001B000FAD505E014F8016B01F8016B6D1EF9D555
:1001C0009142D6D37047000000230024002500266A
:1001D000103A28BF78C1FBD8520728BF30C148BFAA
:1001E0000B6070471FB51FBD10B510BD00F038F98A
:1001F0001146FFF7F7FF08F069FE00F056F903B467
:10020000FFF7F2FF03BC00F059F9000009488047EE
:1002100009480047FEE7FEE7FEE7FEE7FEE7FEE7E8
:10022000FEE7FEE7FEE7FEE704480549054A064B00
:10023000704700001136000831010008503E0020D0
:1002400050440020504000205040002010B54C1079
:1002500084EA530404D54042C1F1000138BF491E6D
:100260001B4204D55242C3F1000338BF5B1E00F0AD
:100270006DF814F0804F04D04042C1F1000138BF46
:10028000491E14F0004F04D05242C3F1000338BF9E
:100290005B1E10BD10B5203AC0F00B80B1E81850BD
:1002A000203AA0E81850B1E81850A0E81850BFF460
:1002B000F5AF5FEA027C24BFB1E81850A0E81850FF
:1002C00044BF18C918C0BDE810405FEA827C24BF53
:1002D00051F8043B40F8043B08BF7047D20728BFE1
:1002E00031F8023B48BF11F8012B28BF20F8023B30
:1002F00048BF00F8012B70474FF0000200B51346CD
:1003000094469646203922BFA0E80C50A0E80C5035
:10031000B1F12001BFF4F7AF090728BFA0E80C50E6
:1003200048BF0CC05DF804EB890028BF40F8042BDF
:1003300008BF704748BF20F8022B11F0804F18BF4C
:1003400000F8012B704770477047704753EA020C62
:1003500000F069802DE9F04B4FF00006002B1FBF25
:10036000B3FA83F503FA05F424FA05F65E4012BFEA
:100370001643B2FA82F502FA05F4C5F120051EBF54
:1003800022FA05FC44EA0C04203556EA044C4FEAF4
:10039000144418BF641C4FF000084FF0000990424D
:1003A00071EB030C39D3002919BFB1FA81F701FAB7
:1003B00007F6B0FA80F700FA07F6C7F120071EBF6C
:1003C00020FA07FC46EA0C062037B6FBF4FCA7EB44
:1003D0000507103F07F01F0BCBF120060CFA0BFBB3
:1003E0002CFA06F644BFB3460026202FA4BF5E4673
:1003F0004FF0000B5BEA060C08BF4FF0010B19EB46
:100400000B09ABFB027C48EB0608C01B06FB02CCC9
:100410000BFB03CC71EB0C01C1E70B4602464146D6
:100420004846BDE8F08B13B54FF000004FF00001D7
:10043000AFF30080BDE81C40704710B500F008F82D
:10044000006810BD10B5044600F002F8046010BD4D
:1004500000487047F03D002000487047F03D002004
:100460007546FFF7F9FFAE4605006946534620F092
:100470000700854618B020B5FFF7D6FEBDE820403E
:100480004FF000064FF000074FF000084FF0000B50
:1004900021F00701AC46ACE8C009ACE8C009ACE803
:1004A000C009ACE8C0098D46704710B50446AFF3EB
:1004B00000802046BDE81040FFF7A1BE014918208A
:1004C000ABBEFEE726000200704721B1826842F011
:1004D0000102826003E0826822F0010282607047BC
:1004E00021B1826842F48072826003E0826822F463
:1004F000807282607047000010B504461248844242
:1005000008D10121401502F087FC0021601502F09E
:1005100083FC17E00D48844208D10121001502F048
:100520007BFC0021201502F077FC0BE00848844298
:1005300008D10121C80302F06FFC00214FF40040F4
:1005400002F06AFC10BD00000024014000280140B8
:10055000003C014021B1826842F48012826003E0D5
:10056000826822F4801282607047014600208A6807
:1005700002F004020AB1012000E0002070470146A9
:1005800000208A6802F008020AB1012000E0002081
:100590007047000030B502460020002350680F4C21
:1005A00020400D790C6844EA05242043506090688F
:1005B0000B4C2040D1E902542C434D7944EA4504C8
:1005C00020439060D06A20F470000C7C641EE4B27A
:1005D000234340EA0350D06230BD0000FFFEF0FF2D
:1005E000FDF7F1FFF0B504460D4600200021092D6E
:1005F00011DDE068A5F10A0606EB4607072606FAB4
:1006000007F18843A5F10A0606EB460603FA06F150
:100610000843E0600CE0206905EB4507072606FA71
:1006200007F1884305EB450603FA06F1084320610C
:10063000072A0FDA606B561E06EB86071F2606FA9E
:1006400007F18843561E06EB860605FA06F10843B5
:10065000606322E00D2A0FDA206BD61F06EB8607B7
:100660001F2606FA07F18843D61F06EB860605FA11
:1006700006F10843206310E0E06AA2F10D0606EBE4
:1006800086071F2606FA07F18843A2F10D0606EB3E
:10069000860605FA06F10843E062F0BD816841F084
:1006A00008018160704721B1826842F4A002826033
:1006B00003E0826822F4A00282607047816841F002
:1006C000040181607047000010B592B0044601211A
:1006D000084602F061FB012140F2046002F08CFB4D
:1006E0004FF4404002F04CFBFF20ADF80400002026
:1006F0008DF8070001A9784800F0EEFD774800F07A
:10070000A7FA7748079008940020099004200A90DF
:1007100000200B9080200C9080000D9080000E90A7
:1007200020200F90000210900020119007A96B4824
:1007300000F053FB01220221684800F045FB012133
:10074000664800F079FA66484C38FFF7D5FE6548F0
:10075000FFF7D2FE4FF4C020029001208DF80C006C
:1007600000208DF80D004FF46020049000200590CB
:1007700004208DF8180002A959484C38FFF70AFFE9
:1007800002230122052156484C38FFF72BFF022394
:100790001A46072152484C38FFF724FF0223032250
:1007A00011464F484C38FFF71DFF02230422012158
:1007B0004B484C38FFF716FF02A94A48FFF7EAFEFC
:1007C0000223012206214748FFF70CFF02231A46A5
:1007D00004214448FFF706FF02230322194641483B
:1007E000FFF700FF0223042200213E48FFF7FAFE34
:1007F00001213C48FFF7AEFE012139484C38FFF794
:100800006FFE012136484C38FFF75FFE34484C3804
:10081000FFF744FF00BF32484C38FFF7B0FE002816
:10082000F9D12F484C38FFF749FF00BF2C484C380E
:10083000FFF79BFE0028F9D101212A48FFF745FE6A
:100840002848FFF72BFF00BF2648FFF798FE002837
:10085000FAD12448FFF732FF00BF2248FFF785FE98
:100860000028FAD11E484C38FFF718FF1D48FFF743
:1008700015FF00BF1A484C38FFF781FE0028F9D158
:1008800000BF1848FFF77BFE0028FAD114484C3807
:10089000FFF714FF1348FFF711FF00BF10484C3853
:1008A000FFF763FE0028F9D100BF0E48FFF75DFE99
:1008B0000028FAD10B208DF8000006208DF80100E9
:1008C00000208DF8020001208DF80300684602F038
:1008D0000FF912B010BD00000008014008000240EE
:1008E0004C2401400028014000BFFEE70020914950
:1008F000D1F894110F2902DD05218F4A11808D490D
:10090000898808B2142801DA012100E00021492871
:1009100001DD012200E00022114311B10621864AC7
:1009200011801E2801D1012100E00021252801D1DC
:10093000012200E000221143262801D1012200E01B
:1009400000221143272801D1012200E00022114397
:10095000282801D1012200E0002211432A2801D1D8
:10096000012200E0002211432B2801D1012200E0E6
:10097000002211432C2801D1012200E00022114362
:100980002E2801D1012200E0002211432F2801D19D
:10099000012200E000221143312801D1012200E0B0
:1009A00000221143322801D1012200E0002211432C
:1009B00011B10621604A1180392801D1012100E0DE
:1009C00000213B2801D1012200E0002211433C28F4
:1009D00001D1012200E000221143422801D101226D
:1009E00000E000221143442801D1012200E000224E
:1009F00011434A2801D1012200E0002211434D2871
:100A000001D1012200E00022114311B106214A4A1E
:100A10001180512801D1012100E00021542801D189
:100A2000012200E000221143552801D1012200E0FB
:100A300000221143572801D1012200E00022114376
:100A4000582801D1012200E0002211435A2801D187
:100A5000012200E0002211435B2801D1012200E0C5
:100A6000002211435D2801D1012200E00022114340
:100A700011B10621304A118040F24911884202D159
:100A800006212D4A11802B49D1F86411B1F5827FDE
:100A900001D0012100E00021264AD2F86421822AF7
:100AA00001D0012200E000221140224AD2F8642144
:100AB000B2F5027F01D0012200E0002211401D4A60
:100AC000D2F8642140F245139A4201D0012200E09D
:100AD00000221140174AD2F86421B2F58B7F01D071
:100AE000012200E000221140124AD2F86421B2F53E
:100AF000AF7F01D0012200E00022114011B1052199
:100B00000D4A11800B49D1F81C130C4A914201D0B7
:100B1000012100E00021074AD2F81C23084B9A4229
:100B200001D0012200E00022114011B10521024A4A
:100B300011807047902F0020502C002078563412DE
:100B40002143658700210CE029B90B4830F81100DA
:100B500080F0FF0203E0084830F811004240481CD2
:100B600081B20B29F0DBD04382B2D2B20AB90120A4
:100B700070470020FCE70000482E002010B500BFA1
:100B80000F4800680F4908600D4840680E4908602A
:100B90000B4880680D4908600948C0680C49086026
:100BA000022000F0FBF8012803D1022000F036F803
:100BB00002E012200749088000200749088010BD84
:100BC0000400002014000020180000201C00002059
:100BD00020000020502C00202C2B002010B50024D9
:100BE00010E00C4810F8140061000B4A22F81100C4
:100BF000084830F81400010A6000401C22F8101068
:100C0000601C84B2062CECDB4FF4003000F006F8D8
:100C100010BD00003C2E0020482E002000F0805126
:100C200011B10349086001E00249486070470000C3
:100C3000040402400000024021B1026842F00102B7
:100C4000026004E002684FF6FE731A4002607047CB
:100C500001684FF6FE7211400160002101604160A1
:100C60008160C1604B49884208D14A4908394968C6
:100C700041F00F01474A083A51608AE04549143172
:100C8000884208D143490839496841F0F001414A96
:100C9000083A51607DE03F492831884208D13D49FA
:100CA0000839496841F470613A4A083A516070E085
:100CB00038493C31884208D136490839496841F4FD
:100CC0007041344A083A516063E0324950318842F9
:100CD00008D130490839496841F470212D4A083A51
:100CE000516056E02B496431884208D129490839BE
:100CF000496841F47001274A083A516049E02549A2
:100D00007831884208D123490839496841F0706137
:100D1000204A083A51603CE01F49884206D1011F31
:100D2000096841F00F01021F116032E01A491431C5
:100D3000884208D11849091F096841F0F001164A94
:100D4000121F116025E014492831884208D1124948
:100D5000091F096841F470610F4A121F116018E001
:100D60000D493C31884208D10B49091F096841F4FB
:100D70007041094A121F11600BE007495031884247
:100D800007D10549091F096841F47021024A121F61
:100D9000116070470800024008040240014600202C
:100DA000002201F0805313B1054B1A6801E0054B96
:100DB0001A6802EA01030BB1012000E0002070472D
:100DC00000040240000002401AB103680B430360B4
:100DD00002E003688B430360704710B5002202688D
:100DE00047F6F0739A430C6A8B6823430C692343DC
:100DF0004C6923438C692343CC6923434C6A2343C6
:100E00008C6A23431A430260CB6843600B6883609B
:100E10004B68C36010BD416070477047002106E019
:100E2000002201E0531CDAB2082AFBDB491C814294
:100E3000F6D3704710B50948008800B20849088009
:100E40000421084800F030FB07480088401C064990
:100E500008804FF4804000F0EFF810BD24080040F7
:100E60003A2C002000140140362C002010B50D480B
:100E7000008898B90C48D0F8FC0178B902210B48D9
:100E800000F0FEFA50B90CF0D1FF0C2008490880A0
:100E9000002008490880012007490880022000F04E
:100EA000CBF810BD122D0020902F00200010014023
:100EB000502C00208C2C0020B42C002010B572B6D1
:100EC00004210A4800F0DCFA094908804FF080400C
:100ED000808C404200B20749088001200649088002
:100EE000042000F0A9F862B610BD00000014014013
:100EF0001C2D00201E2D0020222D00201FB50121B9
:100F0000312001F079FF0220ADF8000028208DF893
:100F1000030003208DF8020069462A4800F0DCF93E
:100F20004FF48040ADF8000028208DF80300032026
:100F30008DF802006946244800F0CEF90121022014
:100F400000F0AAF90E21032000F0A6F9022001907A
:100F500000208DF808000C208DF8090001208DF884
:100F60000A0001A800F06EF84FF4804001900020C4
:100F70008DF8080008208DF8090001208DF80A007E
:100F800001A800F05FF807208DF80C0002208DF812
:100F90000D0000208DF80E0001208DF80F0003A831
:100FA00001F0A6FD28208DF80C0003208DF80D001F
:100FB00000208DF80E0001208DF80F0003A801F02D
:100FC00097FD1FBD00100140001401401FB5012115
:100FD000212001F011FF0420ADF8000048208DF819
:100FE000030002208DF802006946124800F074F9EF
:100FF0000221032000F050F90420019000208DF818
:10100000080010208DF8090001208DF80A0001A8C1
:1010100000F018F808208DF80C0004208DF80D0061
:1010200000208DF80E0001208DF80F0003A801F0BC
:101030005FFD1FBD001401400149086070470000BA
:1010400014040140002123498279002A3AD00A463B
:10105000126803689A430B461A600A1D12680368F7
:101060009A430B1D1A60027911440A6803681A43F7
:101070000A60184A0832126803689A43154B08330D
:101080001A601A1D126803689A43124B0C331A60D7
:101090004279102A0ED11A1F126803681A430D4BA9
:1010A00008331A601A1D126803681A43094B0C337F
:1010B0001A600DE00749427911440A6803681A432F
:1010C0000A6005E0027911440A6803689A430A60DD
:1010D000704700000004014010B588B004460121AB
:1010E000042001F069FE0121202001F085FE01218C
:1010F000080300F07DF918208DF81F004002ADF8BC
:101100001C0003208DF81E0007A91C4800F0E4F81D
:1011100004A806F00DFD0020ADF810004FF6FF709A
:10112000ADF814000020ADF81600ADF8120004A9C7
:10113000134806F0ABFC00231A460321104806F0C2
:10114000DAFA01A806F04EFBADF80C4001A90C48F4
:1011500006F0F2FA01210A4806F0ACFA0122114623
:10116000074806F048FB002005492431088001218A
:10117000034806F0A5FA08B010BD000000140140B5
:101180000008004030B5044604254FF4302000F03C
:101190006FF80546042D17D10C48006940F0020095
:1011A0000A49086108464461006940F0400008614E
:1011B0004FF4302000F05CF805460448006941F621
:1011C000FD71084001490861284630BD00200240F9
:1011D00004200B49C96801F0010109B101200EE0AA
:1011E0000749C96801F0040109B1022007E0044978
:1011F000C96801F0100109B1032000E00420704724
:10120000002002400348006940F080000149086165
:10121000704700000020024070B504460D460426C9
:10122000F00200F025F80646042E11D109480069A5
:1012300040F00100074908612580F00200F018F82D
:1012400006460448006941F6FE71084001490861FC
:10125000304670BD00200240024803494860034800
:10126000486070472301674500200240AB89EFCDFD
:1012700000B502460423FFF7ABFF034603E0FFF788
:10128000A7FF0346521E012B01D1002AF7D102B954
:101290000523184600BD000030B500228B071C0F47
:1012A0000F2303FA04F20B4B8C1053F824309343B2
:1012B000084C8D1044F8253023468C1053F8243008
:1012C0008C07240F00FA04F42343024C8D1044F8D9
:1012D000253030BD080001402DE9F04102460025CF
:1012E0000026002000230024002791F803C00CF002
:1012F0000F0591F803C00CF0100CBCF1000F03D0E7
:1013000091F802C04CEA050591F800C0BCF1000F4D
:1013100031D0146800202BE04FF0010C0CFA00F3E0
:10132000B1F800C00CEA03069E4220D183004FF0C2
:101330000F0C0CFA03F7BC4305FA03FC4CEA040457
:1013400091F803C0BCF1280F06D14FF0010C0CFA44
:1013500000FCC2F814C00AE091F803C0BCF1480FC9
:1013600005D14FF0010C0CFA00FCC2F810C0401C73
:101370000828D1D31460B1F800C0BCF1FF0F34DDF0
:10138000546800202EE000F1080C4FF0010808FA24
:101390000CF3B1F800C00CEA03069E4221D1830091
:1013A0004FF00F0C0CFA03F7BC4305FA03FC4CEAB0
:1013B000040491F803C0BCF1280F05D100F1080C1A
:1013C00008FA0CF8C2F8148091F803C0BCF1480F79
:1013D00007D100F1080C4FF0010808FA0CF8C2F828
:1013E0001080401C0828CED35460BDE8F081000076
:1013F000F0B50A46002300240021002500F0004635
:10140000B6F1004F02D11D4EF16901E01B4E71682B
:10141000C0F3034583B200F44016B6F5401F08D16F
:1014200021F07061154E766826F07066134F7E606D
:1014300012E000F48016B6F5801F06D1032606FAE6
:1014400005F4A14341F0706106E0460D360103FA50
:1014500006F6B14341F0706122B1460D360103FA40
:1014600006F6314300F00046B6F1004F02D1034EBC
:10147000F16101E0014E7160F0BD0000000001402B
:101480000246002093680B400BB1012000E00020D1
:10149000704702460020D3680B400BB1012000E0EA
:1014A00000207047416170470161704770B5044684
:1014B000002519E080210E48FFF7F4FF04F08000BA
:1014C000802804D141000A48FFF7EEFF04E04FF402
:1014D00080710748FFF7E6FF6006040E802104488C
:1014E000FFF7E2FF681CC5B2082DE3DB70BD00000A
:1014F000000C014010B54FF400710448FFF7D2FF13
:101500004FF400710148FFF7CFFF10BD000C014000
:1015100000BFFEE710B53D20194948604FF4FA704E
:10152000C1F85C0140F24130C1F860010320C1F80C
:10153000940140F21450C1F898014FF4AF70C1F813
:10154000640100F029F84FF400500D49086340F29F
:101550007120486341F27C50C1F818010020C1F8A5
:1015600084010846806842F2AC61084404498860FE
:1015700040F29110C1F8C8005A20C1F8C80110BD4E
:10158000902F00207047704710B5FF2108200BF006
:1015900031FD10BD00BFFEE7FE4840684F2875D002
:1015A00041DCA0F114003B2881F08682DFE810F0D6
:1015B0009500B900BA00DF00E00002010301BB00A2
:1015C000E1000401840A25012601470148016A015E
:1015D0006B01840A840A840A840A8E01840A840ABC
:1015E000840AB001840A840AD301840A840AFA01B5
:1015F0001D02400263028502A802840ACB02840A0B
:10160000840AEE021103340357037A03840A9D030C
:10161000840AC003E30309042C044F04840A7504FC
:101620009804840ABD04B0F5A27F00F088873ADCF4
:10163000622875D017DCA0F150001228B4D2DFE880
:1016400010F0C0043B0AE30406053B0A3B0A2905E7
:101650003B0A3B0A4C053B0A3B0A6F053B0A9205D5
:10166000B705DA05FD0540F22F12811A904279D0B4
:101670000DDC632877D0B0F5967F75D0A0F22D10E1
:10168000002872D0012841F01782FDE3FDE3112903
:101690006CD0122900F0EA86132900F00A87142979
:1016A000F1D100F029BFA0F245101428C6D2DFE81E
:1016B00010F069078E07B107D407030AF7071A0865
:1016C0003D085E088108A408C708EA080D092E092C
:1016D000510974099A09BD09E0091820AD49C1F8FA
:1016E0006C014B20C1F870011E20C1F87801C1F8CF
:1016F0007C016420C1F888017D20C1F88C0140F68E
:10170000E440C1F89001142088610120C1F80C0167
:10171000C1F8140141F27C50C1F8180101F0D0B9B0
:10172000FEE300BF00BF1E209A49C1F86C014B20A8
:10173000C1F870011120C1F878012120C1F87C01A5
:10174000D220C1F888018000C1F88C0140F6E44045
:10175000C1F89001142088610120C1F80C01C1F882
:101760001401DBE7FEE3FEE3FEE3FEE3FEE300BF7E
:1017700000BF12208749C1F86C014B20C1F87001ED
:101780002120C1F878011620C1F87C014FF4917036
:10179000C1F888014FF48760C1F88C0140F6E4403D
:1017A000C1F89001142088610120C1F80C01C1F832
:1017B0001401B3E700BF00BF11207649C1F86C01E6
:1017C0004B20C1F870012B20C1F878011220C1F81C
:1017D0007C014FF4B470C1F8880140F24650C1F862
:1017E0008C0140F6E440C1F890011420886101208A
:1017F000C1F80C01C1F8140190E700BF222065492F
:10180000C1F86C014B20C1F870016920C1F8780162
:101810001220C1F87C01F020C1F888014FF46170FA
:10182000C1F88C0140F6E440C1F8900119208861AC
:101830000220C1F80C010120C1F814016EE700BFBD
:1018400011205449C1F86C014B20C1F87001B62039
:10185000C1F878011120C1F87C014FF4C870C1F8BB
:1018600088014FF49660C1F88C0140F6E440C1F85D
:101870009001192088610220C1F80C010120C1F8F3
:1018800014014BE700BF12204249C1F86C014B2004
:10189000C1F8700140F20710C1F878010E20C1F8BC
:1018A0007C014FF4E170C1F8880140F24650C1F864
:1018B0008C0140F6E440C1F89001192088610220B3
:1018C000C1F80C010120C1F8140127E711203149AA
:1018D000C1F86C014B20C1F87001F520C1F8780106
:1018E0000D20C1F87C014FF49670C1F888014FF4C7
:1018F0006170C1F88C0140F6E440C1F890011E20EF
:1019000088610320C1F80C010120C1F8140105E72A
:1019100011202049C1F86C014B20C1F870014FF42F
:10192000AA70C1F878010920C1F87C014FF49670C3
:10193000C1F888014FF46170C1F88C0140F698003D
:10194000C1F890011E2088610320C1F80C0101201C
:10195000C1F81401E2E611200E49C1F86C014B20D8
:10196000C1F870014FF4B970C1F878010A20C1F8CC
:101970007C014FF4C870C1F888014FF49660C1F83B
:101980008C0140F6BE20C1F890011E208861032022
:1019900002E00000902F0020C1F80C010120C1F8E6
:1019A0001401BBE60E20FE49C1F86C014B20C1F8C2
:1019B00070014FF49B70C1F878011420C1F87C01CC
:1019C0004FF4C870C1F888014FF49660C1F88C01DB
:1019D00040F6E440C1F890011E2088610420C1F85F
:1019E0000C010120C1F8140198E60E20EC49C1F861
:1019F0006C014B20C1F870014FF40770C1F87801F9
:101A00000D20C1F87C014FF4B970C1F8880140F293
:101A10005640C1F88C0140F69800C1F890011E2094
:101A200088610420C1F80C010120C1F8140175E699
:101A30000E20DB49C1F86C014B20C1F870014FF456
:101A40000770C1F878010D20C1F87C014FF4FA70DD
:101A5000C1F8880140F2DC50C1F88C0140F6E44046
:101A6000C1F890011E2088610420C1F80C010120FA
:101A7000C1F8140152E60B20C949C1F86C014B2092
:101A8000C1F8700140F27620C1F878010420C1F855
:101A90007C01C820C1F888014FF41670C1F88C0190
:101AA00040F24C40C1F890011E2088610420C1F82A
:101AB0000C010120C1F8140130E60B20B849C1F82F
:101AC0006C014B20C1F8700140F27620C1F878011A
:101AD0000C20C1F87C014FF41670C1F8880140F267
:101AE000DC50C1F88C0140F6E440C1F890011E20A2
:101AF00088610420C1F80C010120C1F814010DE631
:101B00000C20A749C1F86C014B20C1F870014FF4BB
:101B10003E70C1F878010A20C1F87C014FF41670BC
:101B2000C1F888014FF4E160C1F88C0140F69800DB
:101B3000C1F89001262088610420C1F80C01012021
:101B4000C1F81401EAE50B209549C1F86C014B205E
:101B5000C1F870014FF43E70C1F878010D20C1F852
:101B60007C014FF44870C1F888014FF41660C1F849
:101B70008C0140F6E440C1F89001262088610420E1
:101B8000C1F80C010120C1F81401C7E510208449F7
:101B9000C1F86C014B20C1F8700140F25230C1F81D
:101BA00078010A20C1F87C014FF4C870C1F888019F
:101BB0004FF49660C1F88C0140F6BE20C1F8900148
:101BC0001E2088610420C1F80C010120C1F8140115
:101BD000A4E50E207249C1F86C014B20C1F87001D8
:101BE00040F22440C1F878010920C1F87C014FF48B
:101BF000AF70C1F8880140F24650C1F88C0140F244
:101C00007260C1F890011E2088610420C1F80C01A7
:101C10000120C1F8140181E50E206149C1F86C0171
:101C20004B20C1F8700140F22440C1F8780109202E
:101C3000C1F87C014FF4E170C1F8880140F2DC503A
:101C4000C1F88C0140F69800C1F89001232088610A
:101C50000420C1F80C010120C1F814015EE50E203A
:101C60004F49C1F86C014B20C1F8700140F224408B
:101C7000C1F878010A20C1F87C014FF4FA70C1F86C
:101C8000880140F2DC50C1F88C0140F6BE20C1F85A
:101C90009001232088610420C1F80C010120C1F8C3
:101CA00014013BE50E203E49C1F86C014B20C1F800
:101CB000700140F22440C1F878010A20C1F87C018B
:101CC0004FF41670C1F888014FF4E160C1F88C013F
:101CD00040F6E440C1F89001232088610420C1F857
:101CE0000C010120C1F8140118E50C202C49C1F8A1
:101CF0006C014B20C1F8700140F2EC40C1F8780152
:101D00000A20C1F87C014FF41670C1F888014FF425
:101D1000E160C1F88C0140F6BE20C1F8900123209B
:101D200088610420C1F80C010120C1F81401F5E418
:101D30000D201B49C1F86C014B20C1F8700140F225
:101D4000FA50C1F878010820C1F87C014FF41670F0
:101D5000C1F888014FF4E160C1F88C0140F69800A9
:101D6000C1F89001282088610420C1F80C010120ED
:101D7000C1F81401D2E40B200949C1F86C014B20D1
:101D8000C1F8700140F2FA50C1F878010A20C1F898
:101D90007C0140F2EE20C1F8880140F6340001E0F9
:101DA000902F0020C1F88C0140F6BE20C1F89001B0
:101DB000282088610420C1F80C010120C1F8140119
:101DC000ACE40B20F949C1F86C014B20C1F870015B
:101DD00040F2FA50C1F878010C20C1F87C014FF4B0
:101DE0006170C1F8880140F68C20C1F88C0140F682
:101DF000E440C1F89001282088610420C1F80C015A
:101E00000120C1F8140189E41020E849C1F86C01EF
:101E10004B20C1F8700140F29470C1F8780106209F
:101E2000C1F87C014FF4FA70C1F8880140F2DC502F
:101E3000C1F88C0140F24C40C1F890012D2088611E
:101E40000420C1F80C010120C1F8140166E40E2041
:101E5000D649C1F86C014B20C1F8700140F2947072
:101E6000C1F878010620C1F87C014FF41670C1F862
:101E700088014FF4E160C1F88C0140F24C40C1F898
:101E800090012D20886101E087E277E00420C1F80D
:101E90000C010120C1F8140140E40A20C349C1F833
:101EA0006C014B20C1F8700140F29470C1F87801C8
:101EB0000A20C1F87C014FF47A70C1F8880140F61D
:101EC000B830C1F88C0140F6BE20C1F890012D2039
:101ED00088610420C1F80C010120C1F814011DE43F
:101EE0000A20B249C1F86C014B20C1F8700140F2E0
:101EF0009470C1F878010D20C1F87C0140F2E240F5
:101F0000C1F8880140F6D860C1F88C0140F6E44081
:101F1000C1F890012D2088610420C1F80C0100E077
:101F2000AFE10120C1F814011BE40A209F49C1F868
:101F30006C014B20C1F8700140F6D220C1F8780145
:101F40000620C1F87C0140F2B630C1F8880140F6A5
:101F50005430C1F88C0140F27260C1F89001322017
:101F6000886104E03CE2AFE1D1E1F3E15BE204200F
:101F7000C1F80C010120C1F814011AE406208B49B4
:101F8000C1F86C014420C1F8700140F6D220C1F8BC
:101F900078010B20C1F87C0140F2A460C1F88801EF
:101FA00041F2EC30C1F88C0140F6BE20C1F890013E
:101FB000322088610420C1F80C010120C1F814010D
:101FC0001AE406207949C1F86C014420C1F8700177
:101FD00040F6D220C1F878010F20C1F87C0140F60C
:101FE000FC00C1F8880141F6F420C1F88C0140F6EC
:101FF000E440C1F89001462088610420C1F80C013A
:102000000120C1F8140119E407206849C1F86C01E6
:102010004420C1F8700140F62870C1F87801092009
:10202000C1F87C014FF4AF60C1F8880141F268004B
:10203000C1F88C0140F69800C1F8900146208861F3
:102040000420C1F80C010120C1F8140119E4072093
:102050005649C1F86C014420C1F8700140F628705F
:10206000C1F878010B20C1F87C0140F2A460C1F8EE
:10207000880141F2EC30C1F88C0140F6BE20C1F875
:102080009001462088610420C1F80C010120C1F8AC
:1020900014011AE407204549C1F86C014420C1F835
:1020A000700141F2F810C1F878010920C1F87C01F3
:1020B00040F27260C1F8880141F28830C1F88C01A9
:1020C00040F69800C1F89001502088610420C1F8C2
:1020D0000C010120C1F8140119E407203349C1F8AB
:1020E0006C014420C1F8700141F2A860C1F8780188
:1020F0000920C1F87C0140F60200C1F8880141F6D0
:102100003800C1F88C0140F69800C1F890015020C9
:1021100088610420C1F80C010120C1F8140119E400
:1021200007202249C1F86C014420C1F8700141F632
:102130009020C1F878010820C1F87C0140F6020027
:10214000C1F8880141F63800C1F88C0140F69800CA
:10215000C1F89001502088610420C1F80C010120D1
:10216000C1F814011DE406201049C1F86C01442097
:10217000C1F8700140F64850C1F878010620C1F856
:102180007C0140F21A40C1F8880140F61C40C1F8B9
:102190008C0140F27260C1F89001502088610420E7
:1021A000C1F80C010120C1F814011DE4902F00209A
:1021B0000620FE49C1F86C014420C1F8700140F6C8
:1021C000D860C1F878010620C1F87C014FF4966010
:1021D000C1F888014FF46160C1F88C0140F272606F
:1021E000C1F89001502088610420C1F80C01012041
:1021F000C1F814011BE40620EC49C1F86C0144202D
:10220000C1F8700141F25C20C1F878010720C1F8E3
:102210007C014FF4C860C1F888014FF49650C1F8B2
:102220008C0140F69800C1F890015020886104208C
:10223000C1F80C010120C1F814011BE40620DB49A0
:10224000C1F86C014420C1F8700141F2D470C1F8AA
:1022500078010620C1F87C014FF4C860C1F88801FC
:102260004FF49650C1F88C0140F27260C1F89001B1
:10227000502088610420C1F80C010120C1F814012C
:102280001AE40620C949C1F86C014420C1F8700164
:1022900042F29810C1F878010520C1F87C014FF492
:1022A000C860C1F888014FF49650C1F88C0140F223
:1022B0004C40C1F89001502088610420C1F80C0105
:1022C0000120C1F81401FBE30620B849C1F86C01F4
:1022D0004420C1F8700142F29810C1F8780107203B
:1022E000C1F87C014FF41660C1F888014FF4E15049
:1022F000C1F88C0140F27260C1F8900150208861F1
:102300000420C1F80C010120C1F81401D8E30A200F
:10231000A649C1F86C014420C1F8700140F628704C
:10232000C1F878010620C1F87C014FF47A70C1F839
:1023300088014FF49660C1F88C0140F68C20C1F8FA
:1023400090012D2088610420C1F80C010120C1F802
:102350001401B5E30B209549C1F86C014420C1F884
:10236000700141F2F810C1F878010520C1F87C0134
:102370004FF47A70C1F888014FF49660C1F88C016F
:1023800040F69800C1F89001322088610420C1F81D
:102390000C010120C1F8140192E30A208349C1F81D
:1023A0006C014420C1F8700141F2A860C1F87801C5
:1023B0000520C1F87C0140F2E240C1F8880140F2FA
:1023C000DC50C1F88C0140F69800C1F8900137202C
:1023D00088610420C1F80C010120C1F814016FE3E9
:1023E00008207249C1F86C014420C1F8700141F61F
:1023F0009020C1F878010520C1F87C0140F2E2404C
:10240000C1F8880140F2DC50C1F88C0140F6980018
:10241000C1F89001412088610420C1F80C0101201D
:10242000C1F814014CE319206049C1F86C01442043
:10243000C1F8700140F64850C1F878010420C1F895
:102440007C0140F28A20C1F888014FF44370C1F842
:102450008C0140F2A460C1F890012D208861042015
:10246000C1F80C010120C1F8140129E314204F49DF
:10247000C1F86C014420C1F8700140F6D860C1F881
:1024800078010420C1F87C0140F2EE20C1F88801F7
:102490004FF46170C1F88C0140F2A460C1F8900162
:1024A0002D2088610420C1F80C010120C1F814011D
:1024B00006E309203D49C1F86C014420C1F87001D0
:1024C00041F25C20C1F878010420C1F87C0140F29F
:1024D000B630C1F8880140F27440C1F88C0140F672
:1024E0009800C1F89001322088610420C1F80C01E5
:1024F0000120C1F81401E3E216202C49C1F86C0157
:102500004420C1F8700141F2D470C1F87801032071
:10251000C1F87C0140F2EE20C1F888014FF46170EF
:10252000C1F88C014FF49660C1F890013C2088619D
:102530000420C1F80C010120C1F81401C0E21320ED
:102540001A49C1F86C014420C1F8700141F2D470FD
:10255000C1F878010420C1F87C014FF47A70C1F809
:1025600088014FF49660C1F88C0140F2A460C1F874
:1025700090013C2088610420C1F80C010120C1F8C1
:1025800014019DE208200949C1F86C014420C1F8FA
:10259000700142F29810C1F878010320C1F87C0163
:1025A0004FF47A70C1F8880102E00000902F0020FB
:1025B0004FF49660C1F88C01C1F8900150208861F9
:1025C0000420C1F80C010120C1F8140178E20D20AB
:1025D000FE49C1F86C014420C1F8700142F2981024
:1025E000C1F878010320C1F87C014FF49660C1F86E
:1025F00088014FF4B460C1F88C0140F2A460C1F8C6
:102600009001502088610420C1F80C010120C1F81C
:10261000140155E20920ED49C1F86C014420C1F8CC
:10262000700142F21C50C1F878010420C1F87C010D
:102630004FF4FA60C1F888014FF41660C1F88C01BC
:1026400040F2A460C1F89001502088610420C1F8D4
:102650000C010120C1F8140132E20520DB49C1F868
:102660006C014420C1F8700140F64850C1F878016F
:102670000920C1F87C0140F2A460C1F888014FF440
:10268000FF60C1F88C0141F26800C1F89001502050
:1026900088610420C1F80C010120C1F814010FE287
:1026A0000F20CA49C1F86C014420C1F8700140F202
:1026B000FA50C1F878010620C1F87C0140F22620CA
:1026C000C1F888014FF42570C1F88C0140F68C20C8
:1026D000C1F89001282088610420C1F80C01012074
:1026E000C1F81401ECE10C20B849C1F86C01442098
:1026F000C1F8700140F2FA50C1F878010720C1F822
:102700007C0140F28A20C1F888014FF44370C1F87F
:102710008C014FF44860C1F89001282088610420A2
:10272000C1F80C010120C1F81401C9E12C20A7490E
:10273000C1F86C014420C1F8700140F29470C1F8F6
:1027400078010220C1F87C01FA20C1F888014FF419
:102750009670C1F88C018000C1F890012D2088612D
:102760000420C1F80C010120C1F81401A8E11B20CC
:102770009649C1F86C014420C1F8700140F2947090
:10278000C1F878010420C1F87C014FF4E170C1F870
:1027900088014FF40770C1F88C0140F2A460C1F8C1
:1027A00090012D2088610420C1F80C010120C1F89E
:1027B000140185E119208549C1F86C014420C1F854
:1027C000700140F29470C1F878010A20C1F87C01D0
:1027D0004FF4F070C1F888014FF41070C1F88C010B
:1027E00040F69800C1F890012D2088610420C1F8BE
:1027F0000C010120C1F8140162E10C207349C1F8F9
:102800006C014420C1F8700140F29470C1F8780165
:102810000620C1F87C014FF42F70C1F888014FF4F5
:102820006B70C1F88C0140F68C20C1F890012D200E
:1028300088610420C1F80C010120C1F814013FE1B6
:1028400019206249C1F86C014420C1F8700140F6BA
:10285000D220C1F878010420C1F87C014FF42F7018
:10286000C1F888014FF46B70C1F88C0140F2A4608C
:10287000C1F89001322088610420C1F80C010120C8
:10288000C1F814011CE107205049C1F86C01442033
:10289000C1F8700140F6D220C1F878010720C1F8D4
:1028A0007C0140F27E40C1F8880140F26450C1F8DA
:1028B0008C0140F68C20C1F8900132208861042000
:1028C000C1F80C010120C1F81401F9E028203F49AA
:1028D000C1F86C014420C1F8700140F2FA50C1F80F
:1028E00078010320C1F87C01FA20C1F888014FF477
:1028F0009670C1F88C018000C1F890012D2088618C
:102900000420C1F80C010120C1F81401D8E008200E
:102910002E49C1F86C014420C1F8700140F2947056
:10292000C1F878010720C1F87C014FF44870C1F864
:1029300088014FF47070C1F88C014FF44860C1F801
:1029400090012D2088610420C1F80C010120C1F8FC
:102950001401B5E020201D49C1F86C014420C1F8E4
:10296000700140F25230C1F878010720C1F87C01B3
:102970004FF49670C1F888014FF4B470C1F88C011F
:1029800040F68C20C1F890011E2088610420C1F817
:102990000C010120C1F8140192E022200B49C1F87A
:1029A0006C014420C1F8700140F22440C1F8780164
:1029B0000520C1F87C014FF49670C1F888014FF4EE
:1029C000B470C1F88C0140F6980001E0902F00200F
:1029D000C1F89001232088610420C1F80C01012076
:1029E000C1F814016CE01E203E49C1F86C0144207E
:1029F000C1F8700140F22440C1F878010620C1F806
:102A00007C014FF4AF70C1F888014FF4D270C1F867
:102A10008C0140F68C20C1F89001232088610420AD
:102A2000C1F80C010120C1F8140149E016202D491C
:102A3000C1F86C014420C1F8700140F2EC40C1F8CB
:102A400078010720C1F87C014FF4E170C1F88801DA
:102A50004FF40770C1F88C0140F68C20C1F890014A
:102A6000232088610420C1F80C010120C1F8140161
:102A700026E014201B49C1F86C014420C1F8700104
:102A800040F2FA50C1F878010520C1F87C014FF4FA
:102A9000C870C1F888014FF4F070C1F88C0140F69D
:102AA0009800C1F89001282088610420C1F80C0129
:102AB0000120C1F8140103E005200B49088000BF84
:102AC00000BF0848D0F86C0140100649C1F86C01FD
:102AD0000846D0F86C01042802DA0420C1F86C0121
:102AE00070470000902F0020502C002070470000FD
:102AF00070B5002100230F22C47804B3154C24685C
:102B000004F4E064C4F5E064210AC1F10403CA409E
:102B1000447804FA03F184781440214309010E4CEF
:102B20000678A155047804F01F050124AC4005780F
:102B30006D11AD0005F1E025C5F8004109E004780C
:102B400004F01F050124AC40044D0678761145F8C9
:102B5000264070BD0CED00E000E400E080E100E004
:102B600002490143024A1160704700000000FA0563
:102B70000CED00E07047000010B588B0044601215C
:102B8000084600F019F90121042000F035F901216F
:102B9000082000F031F901212A48FEF729FC18200D
:102BA0008DF81F004FF40040ADF81C0003208DF895
:102BB0001E0007A92448FEF78FFB18208DF81F0080
:102BC0000820ADF81C0003208DF81E0007A91F483F
:102BD000FEF782FB04A804F0ABFF0020ADF8100064
:102BE0004FF6FF70ADF814000020ADF81600ADF8F8
:102BF000120004A94FF0804004F048FF00231A4659
:102C000003214FF0804004F076FD01A804F0EAFDB6
:102C1000ADF80C4001A94FF0804004F08DFD01217A
:102C2000880704F047FD01221146900704F0E3FDF8
:102C300000204FF0804188840121880704F040FD86
:102C400008B010BD0003180000080140000C01404E
:102C500038B504460121084600F0AEF801210420F1
:102C600000F0CAF801211E48FEF7C2FB18208DF8BB
:102C700003004FF40040ADF8000003208DF802007F
:102C800069461848FEF728FB4FF6FF704FF0804169
:102C90008885002008850846008904F00F0140EA75
:102CA00001204FF0804108810846008920F44050FF
:102CB00008810846008904F0100140EAC1204FF065
:102CC000804108810846008940F480400881002046
:102CD00088840846008840F00100088038BD000064
:102CE000000318000008014038B504460121022005
:102CF00000F062F80121202000F07EF818208DF805
:102D000003000420ADF8000003208DF8020069469E
:102D10001948FEF7E1FA4FF6FF70184908800020C5
:102D2000091F088015482438008804F00F0140EA84
:102D300001201249243908800846008820F44050B8
:102D400008800846008804F0100140EAC1200B49C1
:102D5000243908800846008840F48040088000201C
:102D600006490839088005482C38008840F00100E1
:102D700002492C39088038BD001401402C04004061
:102D800001460020034A506820F440400843506048
:102D9000704700000010024029B1064A5269024300
:102DA000044B5A6104E0034A52698243014B5A6161
:102DB000704700000010024029B1064AD269024360
:102DC000044BDA6104E0034AD2698243014BDA61C1
:102DD000704700000010024029B1064A1269024300
:102DE000044B1A6104E0034A12698243014B1A61E1
:102DF000704700000010024029B1064A9269024360
:102E0000044B9A6104E0034A92698243014B9A6140
:102E1000704700000010024029B1064AD268024300
:102E2000044BDA6004E0034AD2688243014BDA6063
:102E3000704700000010024030B50021002200243D
:102E400000232D4D6D6805F00C0121B1042905D03A
:102E5000082923D105E0294D056022E0274D0560B2
:102E60001FE0254D6D6805F47012234D6D6805F463
:102E70008034022505EB92421CB9214D5543056073
:102E80000BE01D4D6D6805F400351DB11C4D55431B
:102E9000056002E0194D5543056002E0174D0560DD
:102EA00000BF00BF144D6D6805F0F0010909154D14
:102EB0006B5C0568DD4045600F4D6D6805F4E061B1
:102EC000090A104D6B5C4568DD4085600A4D6D68F0
:102ED00005F46051C90A0B4D6B5C4568DD40C56067
:102EE000054D6D6805F44041890B074D6B5CC56865
:102EF000B5FBF3F5056130BD0010024000127A0009
:102F000000093D00DA350020EA35002030B50346DF
:102F10000C461546002207E0184600F008F824F891
:102F200012009B1C501C82B2AA42F5DB30BD014648
:102F3000088870472DE9F05F80468A461746B8F149
:102F4000006F02D33348804501D3BDE8F09FFEF700
:102F500083F9A8F1006B4FEADB25CBF34909C9F5EA
:102F60008064A74200DC3C464DE04FF0006101EB7D
:102F7000C5204A142849FFF7C9FF00260BE009EBDA
:102F80000600254931F810004FF6FF71884200D045
:102F900003E0701C86B2A642F1DB00BFA6421BDA3A
:102FA0004FF0006101EBC520FEF7ECF8002608E0C9
:102FB0003AF8160006EB0901174A22F81100701CB6
:102FC00086B2A642F4DB4FF0006101EBC5204A1443
:102FD000114900F023F804E022465146404600F033
:102FE0001DF8A74200D10FE06D1C4FF000090AEB5D
:102FF000440AA044381B87B2B7F5806F02DD4FF456
:10300000806400E03C46B0E700BFFEF7FBF800BF7D
:103010009BE7000000000808F03500202DE9F04192
:1030200005460E461746002407E036F814102846D9
:10303000FEF7F2F8AD1C601C84B2BC42F5DBBDE8C3
:10304000F081704710B500F001F810BD0CB50020FC
:10305000019000903348006840F4803031490860A6
:1030600000BF3048006800F4003000900198401C18
:103070000190009818B90198B0F5485FF1D129483E
:10308000006800F4003010B10120009001E0002041
:1030900000900098012843D12348006840F01000B8
:1030A000214908600846006820F0030008600846CF
:1030B000006840F0030008601A48406819494860F9
:1030C0000846406848600846406840F480604860B0
:1030D0000846406820F47C1048600846406840F488
:1030E000241048600846006840F08070086000BF07
:1030F0000C48006800F000700028F9D009484068CA
:1031000020F00300074948600846406840F002008C
:10311000486000BF0348406800F00C000828F9D15F
:103120000CBD0000001002400020024070B50146B6
:103130000020002200231724084610F10A0F00DAAD
:103140001824002800DD1724002801DA454228B29F
:1031500042F20F75A84200DD2846374DEC80642806
:103160000EDA1725344EB580002575800225334EC2
:1031700035800A2590FBF5F52DB22F4E35805AE0AB
:10318000B0F57A7F01DA012500E00025642801DB33
:10319000012600E000263540B5B11725264EB58042
:1031A000642590FBF5F52DB275800225234E358000
:1031B000642590FBF5F605FB16020A2592FBF5F552
:1031C0002DB21D4E358036E042F21075A84201DA6C
:1031D000012500E00025B0F57A7F01DB012600E043
:1031E000002635400DB34FF47A7590FBF5F52DB2FE
:1031F000114EB5804FF47A7590FBF5F605FB16027B
:10320000642592FBF5F52DB20B4E758002250B4E11
:103210003580642592FBF5F605FB16230A2593FB02
:10322000F5F52DB2044E358005E00E25024EB58031
:1032300012257580358070BD522C0020902C002006
:1032400030B50021734B984200DD1846714B5B424C
:10325000984200DA1846002803DB00216E4B186004
:1032600003E0012143426C4C23606B4B1A680A2334
:1032700092FBF3F403FB14231BB2684C23800A2354
:1032800092FBF3F31BB2664C23802346B3F9003064
:103290000A2493FBF4F504FB1533624C2380604B46
:1032A000B3F900300A2493FBF4F31BB25E4C238085
:1032B0002346B3F900300A2493FBF4F504FB1533DD
:1032C0005A4C2380584BB3F900300A2493FBF4F393
:1032D0001BB2574C23802346B3F900300A2493FBDA
:1032E000F4F504FB1533534C2380514BB3F90030F4
:1032F0000A2493FBF4F31BB24F4C23802346B3F90B
:1033000000304E4C238017234D4C63814B4B1B8860
:10331000002B60D117236381464B1B88002B40D1C3
:1033200017232381414B1B882BBB1723E3803D4B85
:103330001B8873B91723A38011B11823638002E09F
:1033400017233F4C6380354BB3F900303C4C23804E
:103350005EE019B118233A4CA38002E01723384CE1
:10336000A380304BB3F90030354C63802B4BB3F95D
:10337000003023804CE019B11823314CE38002E087
:1033800017232F4CE380254BB3F900302C4C2380BE
:10339000244BB3F900306380244BB3F90030A38091
:1033A00036E019B11823264C238102E01723244C60
:1033B00023811A4BB3F90030214C2380194BB3F908
:1033C00000306380194BB3F90030A380194BB3F977
:1033D0000030E3801CE019B11823194C638102E02E
:1033E0001723174C63810D4BB3F90030144C238025
:1033F0000C4BB3F9003063800C4BB3F90030A38061
:103400000C4BB3F90030E3800C4BB3F9003023814F
:1034100030BD0000DF220200E42B0020242C00201D
:10342000602C0020222C0020622C0020202C002068
:10343000642C00201E2C0020662C00201C2C002058
:10344000522C002070B503460022002B03DB00BF86
:10345000654C236003E001225C42634D2C60624CAA
:1034600024680A2594FBF5F05F4C246894FBF5F67C
:1034700005FB1644052C00DB401C0A2815DA17242E
:103480005A4D2C81EC8012B11824AC8002E0172434
:10349000564DAC800024554D6C8004B22C80544CA9
:1034A0002488A41C524D2C809DE00A2490FBF4F14A
:1034B00090FBF4F504FB1504052C00DB491C0846C1
:1034C0000A2490FBF4F504FB150424B2494D2C802A
:1034D0000A2490FBF4F424B2474D2C802C46B4F916
:1034E00000400A2594FBF5F605FB1644434D2C805D
:1034F000414CB4F900400A2594FBF5F424B2404D48
:103500002C802C46B4F900400A2594FBF5F605FB07
:1035100016443C4D2C803A4CB4F900400A2594FBEB
:10352000F5F424B2384D2C802C462488002C41D14F
:1035300017242E4D2C81334C24882CBB1724EC806F
:103540002E4C248874B91724AC8012B118246C80D6
:1035500002E01724254D6C80264CB4F90040234D21
:103560002C8040E01AB11824204DAC8002E01724D2
:103570001E4DAC80214CB4F900401C4D6C801D4C9C
:10358000B4F900402C802EE01AB11824174DEC80BD
:1035900002E01724154DEC80164CB4F90040134D91
:1035A0002C80164CB4F900406C80164CB4F90040E5
:1035B000AC8018E01AB118240C4D2C8102E01724BD
:1035C0000A4D2C810B4CB4F90040084D2C800B4C5B
:1035D000B4F900406C800B4CB4F90040AC800A4C4C
:1035E000B4F90040EC8070BDE42B0020522C002088
:1035F000902C0020242C0020622C0020222C002063
:10360000642C0020202C00201E2C0020704700007D
:1036100010B51348006840F00100114908600846E1
:103620004068104908400E494860084600680E4945
:1036300008400B4908600846006820F480200860B4
:103640000846406820F4FE0048604FF41F00886080
:10365000FFF7F8FC4FF000600449086010BD00005F
:10366000001002400000FFF8FFFFF6FE08ED00E04A
:10367000014640F66D32914201DD282058E040F6C7
:103680008522914201DD2D2052E040F6A1129142A7
:1036900001DD32204CE040F6C302914201DD3720CB
:1036A00046E040F2ED72914201DD3C2040E040F204
:1036B0002372914201DD41203AE040F2656291427D
:1036C00001DD462034E040F2B552914201DD4B204D
:1036D0002EE040F21352914201DD502028E0B1F576
:1036E000906F01DB552023E040F2F932914201DD79
:1036F0005A201DE040F28132914201DD5F2017E047
:1037000040F21632914201DD642011E040F2B6220F
:10371000914201DD69200BE040F26122914201DD1E
:103720006E2005E0B1F5067F01DB732000E0782014
:1037300070470000F0B50C46154600220021068CAB
:103740004FF6FE773E400684028B018C4FF60C76D6
:1037500032407E1C06EA03162E433243104EB0421E
:103760000ED0104EB0420BD0B0F1804F08D00E4EAC
:10377000B04205D00D4EB04202D00D4EB04206D13F
:103780004FF6FD76314044F00106314305E04FF637
:10379000F576314044F00106314302830184F0BDE7
:1037A000002C0140003401400004004000080040AB
:1037B000000C0040F0B50C46154600220021002602
:1037C000078C4FF6EF7C07EA0C070784028B018C0D
:1037D0004FF6FF7707EA041640F6FF473A404FF6E8
:1037E000FF7707EA03373A434FF6FF7707EA0527E3
:1037F0003A43114FB8420ED0104FB8420BD0B0F13F
:10380000804F08D00E4FB84205D00E4FB84202D0BC
:103810000D4FB84206D14FF6DF77394046F010071A
:10382000394305E04FF65F77394044F010073943DC
:1038300002830184F0BD0000002C014000340140EF
:103840000004004000080040000C0040F0B50C46A9
:103850001546002200210026078C4FF6FF6C07EA70
:103860000C070784828B018C4FF6FF7707EA04264A
:103870004FF60C773A404FF6FF7707EA03172F43CE
:103880003A43114FB8420ED0104FB8420BD0B0F1AE
:10389000804F08D00E4FB84205D00E4FB84202D02C
:1038A0000D4FB84206D14FF6FF57394046F48077A6
:1038B000394305E04FF2FF57394044F480773943EC
:1038C00082830184F0BD0000002C014000340140DF
:1038D0000004004000080040000C0040F0B50C4619
:1038E0001546002200210026078C4EF6FF7C07EAD1
:1038F0000C070784828B018C4FF6FF7707EA0436AA
:1039000040F6FF473A404FF6FF7707EA05273A436C
:103910004FF6FF7707EA03373A43114FB8420ED00C
:10392000104FB8420BD0B0F1804F08D00E4FB842C4
:1039300005D00E4FB84202D00D4FB84206D14DF619
:10394000FF77394046F48057394305E047F6FF5783
:10395000394044F48057394382830184F0BD00002C
:10396000002C0140003401400004004000080040E9
:10397000000C00402DE9F04FA1B000BF00BF0020B7
:103980001C901B901A9018900024002500260027F8
:1039900006900590049002904FF48051FE48FDF788
:1039A00083FD72B64FF08040808C404200B2FB49EC
:1039B00008800121FA48FCF776FE0120F9490880C9
:1039C000F9480088002848D1F8480088012823D108
:1039D000F748008801280BD1F6480088F649098885
:1039E000401AF6490988081A00B2F44908800AE02A
:1039F000F0480088F0490988401AF04909880844CD
:103A000000B2EE490880EB48B0F90000EA490880AE
:103A10000020E649088033E0E548008801280BD102
:103A2000DE480088E4490988401AE44909880844C6
:103A300000B2E24908800AE0D8480088DE490988D7
:103A4000401ADE490988081A00B2DC490880D348C8
:103A5000B0F90000D849088012E0D3480088012856
:103A600008D18007808CD6490988401A00B2D34912
:103A7000088005E04FF08040808C00B2CF4908807C
:103A800062B6D048008847F23051884203DD0846CC
:103A9000CC49088004E0CB480088401CC949088014
:103AA000C9480088401C00B2C74908800846B0F9E0
:103AB0000000B0F57A7F02DD4FF47A700880C348C9
:103AC0000088401C00B2C14908800846B0F90000D7
:103AD000B0F57A7F02DD4FF47A700880BC48008828
:103AE000401C00B2BA4908800846B0F9000044F60C
:103AF0002061884202DD0846B5490880B548008843
:103B0000401C00B2B34908800846B0F9000044F6F2
:103B10002061884202DD0846AE490880AE48008830
:103B200078B9AE480088401CAC4908800846008837
:103B300047F2305188420DDD47F61810A74908803A
:103B400008E00020A6490860A6490860A649086068
:103B5000A24908800221A548FDF792FC88B99E4839
:103B6000008870B9A248D0F8FC0150B90AF05EF99B
:103B70000020A04908800C209F49088001209F490F
:103B800008809F480088401C9D490880084600889E
:103B9000B0F57A7F2CDD08460088B0F5966F02DD1F
:103BA0004FF4FA600880FCF7CDFF10BB9548008801
:103BB000401C00B2934908800846B0F900001E2856
:103BC000E8DD8D480088282802D009208A4908802D
:103BD0000AF02CF90020874908808A4908808A4821
:103BE0000088292804DA88480088401C8649088013
:103BF0007AE00020834908808448807C00F0C00778
:103C00008248807C00F0050006900698F0B180485C
:103C10000088401C00B27E490880754890F8F00189
:103C200000F00200022814D10846B0F900000A286A
:103C30000FDD28207049088073480088292808DA99
:103C400071480088401C7049088002E000207049DB
:103C50000880EFB16F480088401C00B26D490880B1
:103C6000634890F8F00100F00100A0B10846B0F9F7
:103C700000000A280FDD28205F490880624800887C
:103C8000292808DA60480088401C5F49088002E063
:103C90000020604908805D4804892402C0880444EB
:103CA00024025A48808804445B480088112804D1C3
:103CB0005648807A1138044102E0574800780441A0
:103CC00056480088012801D15548041B5548046016
:103CD0004E48C489240280890444B4F5004F01DBB6
:103CE000A4F580345048046000BF2E4800880028A6
:103CF000FBD14E480088C0F30B0017904B4800687A
:103D0000C0F30B4016903A48D0F864011799484325
:103D100018901898001200B217903548D0F8640136
:103D20001699484318901898001200B2169040480F
:103D30000088C0F30B0015903E480068C0F30B40AC
:103D400013903D480088012800D100E00020284958
:103D5000C96D09B9012100E0002108402449D1F8CA
:103D6000E011012900D100E00021084010B11398B2
:103D7000149001E0159814902E480088C0F30B00B1
:103D800010902E4909881098401A2D490968084456
:103D90002B490860084655E000080140202D00200E
:103DA000002401402C2B0020822D0020222D0020F9
:103DB0001C2D00201E2D0020242D00202E2F002041
:103DC000240400403C2F0020922C0020942C002042
:103DD0008A2C0020882C0020122D0020802D00200D
:103DE000002F0020042F0020F42E0020001001409E
:103DF000902F00208C2C0020502C0020B42C002070
:103E0000842E0020EE2D00203A2F0020482E002086
:103E1000EC2D0020F02D0020282D0020262D002044
:103E2000FFFF0100602E0020682E002014000020FB
:103E3000180000201C000020702D0020D42B002032
:103E4000E82E00200068C0F30F20FE490880FE48DD
:103E50000068C0F30B400390FC49B1F900100398CF
:103E6000401AFB4909680844F94908600846006897
:103E7000801000B2F5490880F648D0F8C8400846DE
:103E8000B0F9000000FB04F5281300B2F2490880E5
:103E90000846B0F90000002801DA00200880EE484A
:103EA000B0F90000B0F5BE7F0ADDEC48008838B9F3
:103EB0004FF40041EA48FDF7F5FA0120E749088090
:103EC000E548B0F90000B0F5AA7F07DA4FF40041E9
:103ED000E348FDF7E9FA0020E0490880DD48D0F822
:103EE000B80000EB800085001598A0F50060D94966
:103EF000D1F8B410441ADB480068201ADA4909687E
:103F00000844D94908600846006890FBF5F0D54997
:103F100008601498A0F50060CE49C96F441AD348D0
:103F20000068201AD24909680844D1490860084647
:103F3000006890FBF5F0CD490860CE48008808B9CC
:103F4000012000E00020CC490988642901DD01211D
:103F500000E000210840E0B3C84801681798084411
:103F6000C6490860C648016816980844C4490860F4
:103F7000C4480068401CC349086008460068FF2820
:103F800059DDBE4800680012BC490860BC480068A2
:103F90000012BB4908600120B64908800020B949D9
:103FA0000860AC48B0F86401C0EBC00000B2B6498C
:103FB0000880A848B0F8640100EBC00000B2B34923
:103FC0000880AE480068B1F90010884202DB012089
:103FD00001E030E00020A9490968AB4AB2F90020AD
:103FE000914201DA012100E000210843A449096857
:103FF000A64AB2F90020914201DB012100E0002134
:1040000008439F490968A04AB2F90020914201DAA9
:10401000012100E00021084318B117209C490880C5
:1040200009E09648008800B29A49088094480088C0
:1040300000B29949088099480088012831D10020B0
:104040009749088097480168159808449549086081
:1040500095480068401C9449086008460068B0F51F
:10406000806F1EDB8F48006880128E49086008460A
:104070000068A0F500607749C1F8B4000846D0F8A0
:10408000B4008A49C1F8B4000120894908800020A1
:10409000824908808449086082490860012080497B
:1040A00008808448008801282ED100207C4908809F
:1040B00081480168149808447F4908607F48006877
:1040C000401C7E49086008460068B0F5806F1BDB25
:1040D0007948006880127849086008460068A0F5B1
:1040E00000605C49C8670846C06F7049C867012016
:1040F0007349088000206F490880704908606E4944
:1041000008600120664908806E48008801280CD1AB
:104110006048B0F900101798081A1C905E48B0F972
:1041200000101698081A1A9002E000201C901A90AD
:104130001A9841421C98081A1B906348008801286D
:1041400000D100E000204349C96D09B9012100E018
:104150000021084070B15D480068401C5B49086060
:104160000846006844F6206188420ADD084657493F
:10417000086006E03748D0F8A80000F57A70534987
:10418000086053480088401C00B251490880084626
:10419000B0F90000642810DB4E48B0F900004E4929
:1041A000B1F90010401A4D490860002048490880C4
:1041B0004848B0F90000484908804948008840F262
:1041C0004C4188422BDD4748006847490968441A3A
:1041D0004648006846490968451A66042E4430B2CC
:1041E000444908800846B0F9000040F2277100FBFE
:1041F00001F6B01040490860084600683F49096868
:10420000401A3F49096808443D4908601148C66999
:104210000846006890FBF6F03849086006E0002088
:104220003549086035490860354908602F480068FD
:104230002F4908602B4800682B4908602E48006809
:10424000304961E0D42B002018000020322F0020DC
:10425000102F0020902F0020D22B00202A2D00208C
:10426000000C0140202B00201C2B0020282B0020BC
:10427000242B00204E2C0020802D0020002F002019
:10428000042F0020F42E00208C2D00208E2D0020E5
:10429000502C0020182F00201A2F0020142C002052
:1042A000CC2E0020082F0020F82E0020B032002055
:1042B000462C0020162C00200C2F0020FC2E002065
:1042C000482C00208C2C0020702D0020D82D0020A0
:1042D000302F00202E2F0020D82B0020542B002020
:1042E000842E0020682E00206C2E0020602E0020DE
:1042F000642E0020162D00207C2E0020782E002019
:10430000282F0020802E00200968401AFE490968E5
:104310000844FD49086008460068C012FB4908606F
:10432000F9490868C11700EB5151C912A0EBC12629
:10433000B6F5806F04DBF5480068401CF34908605F
:1043400016F5806F04DCF1480068401EEF490860F4
:10435000EF480068EF490968401AEF4909680844C6
:10436000ED490860084600680012EA490860EA4919
:104370000868C11700EB11610912A0EB0126802E1D
:1043800005DDE4480068401CE249086007E016F1DA
:10439000800F04DADF480068401EDE490860DF480D
:1043A000D0E900C1DE48B0F90000C2171CEB0000E4
:1043B0005141DA4A03C2DB48D0F8DC00C317083A9F
:1043C00006CAA0FB01CE03FB01E100FB0210C10302
:1043D00041EA5C40D44908601FE0D248D0F8DC00D4
:1043E000C11702460B46CDE900014FF0546003218E
:1043F000FBF72CFFC94AD2E90032181A62EB01021E
:10440000C64905C1C8480068C849401AC64908607D
:10441000C7480068401CC6490860C3480068C349D3
:104420008842DADC21E0BF48D0F8DC00C117024640
:104430000B46CDE900014FF054600321FBF706FF66
:10444000B64B0CCB844608461CEB02015841B34ADC
:10445000C2E90010B4480068B4490844B249086091
:10446000B3480068401EB2490860AF480068AF49D1
:1044700049428842D7DBAE480068AE480088002039
:1044800010B11E20AC490880A9480068A74988429D
:1044900004DBA7480068401AA5490860A4480068E2
:1044A000A2494942884205DCA148006849420844C3
:1044B0009F4908609B48D0F8500188B100209F496F
:1044C00008609F4908809F4908609949086096499B
:1044D00008600021914A116051609249C1F8500171
:1044E0009948008808B9012000E000209649098811
:1044F000092901D1012100E000210843002801F031
:104500001E829248008892490988401A00B2914957
:1045100008808E48B0F900008D4908808A480088DC
:10452000092872D17F48D0F8780201280AD07D4846
:10453000D0F878020028F4D18748008842F2107140
:10454000884262DD85480088002871D17548C06DB9
:1045500009286ED18248008AA8BB8148C08908B961
:10456000012000E000207E49898909B9012100E08D
:104570000021084018B100207A49088064E078489A
:10458000C08908B9012000E0002075498989012906
:1045900000D100E00021084018B1012071490880D5
:1045A00052E06F48C089012800D100E000206C492A
:1045B000898909B9012100E00021084020B10220C9
:1045C0006849088040E003E00320664908803BE03A
:1045D0006348C08908B9012000E00020604989894A
:1045E00009B9012100E00021084018B104205D490B
:1045F000088029E05A48C08908B9012000E000205D
:1046000057498989012901D101E02AE000210840A8
:1046100018B105205349088016E05148C089012887
:1046200000D100E000204E49898919B9012102E03A
:1046300028E017E00021084018B106204949088009
:1046400002E0072047490880474800884549098813
:10465000884206D00A2041490880424800884249E1
:104660000880BBE12F48D0F8280218B10A203B4946
:104670000880B3E13D4880890028F2D10120374904
:104680000880ABE135480088012807D13748808988
:104690000128E6D10A20314908809FE12F4800888F
:1046A0000A286BD12F480088072868D2DFE800F07D
:1046B00004196B8095AABF001A48D0F880022C49D3
:1046C000096848432B4908601648D0F85802096821
:1046D0000844284908601348B0F830022649088089
:1046E000CFE01048D0F884022149096848432149A5
:1046F00008600C48D0F85C02096808441D4908604D
:104700000848B0F834023BE0242F0020802E00201F
:104710007C2E0020A82E0020AC2E0020002C002093
:10472000162D0020902F0020E82B0020A0860100ED
:10473000EC2B0020262C0020502C0020202E0020C6
:10474000242E00201C2E0020702D00202E2F002053
:104750002C2F0020142D00208E2E0020B42E00209F
:10476000BE2C0020B02E0020B22E0020D22C002023
:10477000C82B0020C42E0020C82E00209EE06BE035
:10478000FE4908807DE0FE48D0F88802FD490968AE
:104790004843FD490860FA48D0F8600209680844B7
:1047A000F9490860F648B0F83802F449088068E032
:1047B000F348D0F88C02F34909684843F24908608D
:1047C000EF48D0F8640209680844EF490860EC48F3
:1047D000B0F83C02E949088053E0E948D0F890027B
:1047E000E84909684843E8490860E548D0F86802A4
:1047F00009680844E4490860E148B0F84002DF492C
:1048000008803EE0DE48D0F89402DE49096848435B
:10481000DD490860DA48D0F86C0209680844DA49D2
:104820000860D748B0F84402D449088029E0D44849
:10483000D0F89802D34909684843D3490860D04862
:10484000D0F8700209680844CF490860CC48B0F835
:104850004802CA49088014E0C948D0F89C02C949F6
:1048600009684843C8490860C548D0F87402096817
:104870000844C5490860C248B0F84C02BF490880E6
:1048800000BF00BFBE48D0F85002012807D1BE4883
:104890000068BE490968401ABD49086003E0BA488B
:1048A0000068BB490860B9480068B949096808440C
:1048B000B64908600B20B74908808FE0B5480088EA
:1048C0000B2867D1AD4800883C2190FBF1F0B2493C
:1048D0000880AA4800883C2190FBF1F201FB1200FD
:1048E000AE4909880844AD490880084600883C283C
:1048F00008DB084600883C380880A7480088401C30
:10490000A5490880A2480068002820DBA04800686C
:10491000A149098888420CDD9F48008800B2A0495F
:1049200008809B4800689C490988401A984908609B
:1049300054E09748008800B29949088000209449C3
:104940000860984908800C209249088046E0904809
:10495000006840429049098888420DDD8E480088F1
:10496000404200B28E490880894800688A49098817
:1049700008448749086031E08548008800B28849CA
:104980000880002082490860864908800C208149FF
:10499000088023E07F4800880C281FD181480088C8
:1049A000401C804908807648D0F82802098888424F
:1049B00014DA0020774908807148C06D09280DD0AD
:1049C00079480088401C784908806D48D0F82C024E
:1049D0000988884202DA0020734908806848D0F8C4
:1049E0002C0100287CD171480088012847D17048EB
:1049F000006870490968884203D16148D0F85401C1
:104A0000E8BB6C4800686A4908605D48D0F854010A
:104A100001280BD165480088012805D16548006848
:104A200065490968441A03E0002401E0614804680C
:104A3000624804606248B0F90000624908800020C2
:104A40005C4908605E490880584908805D48B0F9B3
:104A500000003C2190FBF1F000B25B49088059480E
:104A6000B0F900003C2190FBF1F201FB1200574924
:104A70000988084400B255490880084600E051E022
:104A8000B0F900003C280ADB084600883C3800B238
:104A900008804D480088401C00B24B4908804748B8
:104AA0000068002804DB454800684949086004E0C4
:104AB000424800684042464908604548006842490B
:104AC000B1F90010884202DD3E48008848B93B48F1
:104AD000008800B232490880002038490860A3E00D
:104AE000FAE03648006800280DDB3748B0F90000CE
:104AF0002B490880314800683349B1F90010401A49
:104B00002E49086090E030480088404200B22449B5
:104B100008802A4800682C49B1F900100844274948
:104B2000086081E02748B0F900003C2190FBF1F0DB
:104B300000B2254908802348B0F900003C2190FBD1
:104B4000F1F201FB120021490988084400B21F4913
:104B500008800846B0F900003C280ADB08460088B7
:104B60003C3800B2088018480088401C00B2164942
:104B7000088012480068002831DB2BE0C82E002096
:104B8000902F0020C82B0020C42E0020C02E002013
:104B9000BC2E0020B42E0020B62E0020B82E0020FF
:104BA000142D0020CA2E0020B02E0020242E00201C
:104BB0001C2E0020182E0020202E0020142E002055
:104BC000122E0020102E0020282E0020262E00203D
:104BD0002C2E0020FE480068FE49086004E0FC48D6
:104BE00000684042FB490860F948006800280DDB76
:104BF000F948B0F90000F9490880F5480068F6491D
:104C0000B1F90010401AF24908600DE0F24800883E
:104C1000404200B2F1490880ED480068EE49B1F920
:104C200000100844EA490860ED48B0F90000002887
:104C300049DDEC48D0F82001E949B1F9001088427B
:104C400003DC0020E649088005E0E5480088401CB8
:104C500000B2E34908800020E3490880E349088066
:104C6000E3490860E3490860E3490860D8490860FF
:104C7000E2490880E2490880D6490860D6490880A0
:104C8000D849C1F81C01C1F824013C20C1F8280111
:104C90000020DC49C1F81C01C1F824013C20C1F806
:104CA0002801D048D0F8200101280CDD0020CB4994
:104CB0000880D5490860D5490860D5490860D549BC
:104CC0000860D5490860CB480068C449B1F90010B4
:104CD0000844C849086027E00020C1490880C2494B
:104CE0000880C2490880C2490860C2490860C249B8
:104CF0000860B7490860C1490880C1490880B549C2
:104D00000860B5490880B749C1F81C01C1F8240101
:104D10003C20C1F828010020BA49C1F81C01C1F8A3
:104D200024013C20C1F82801BC48008802280BD18E
:104D3000BB480088012807D1BA48008848BB42F226
:104D40002930B84908808FE0B4480088012821D173
:104D5000B348008801281DD1B348008901280CD12F
:104D6000B048008828B1AF48008842F212718842EA
:104D700003D142F22930AB490880AB48008940B9E1
:104D8000A848008842F2117188426DD1401CA549A3
:104D9000088069E0A148008803282DD1A048008838
:104DA000012829D18F48D0F82401012816D19D4827
:104DB000008828B19B48008842F2127188420DD1C8
:104DC00000209A49088041F6593096490880002011
:104DD0008449C1F81C018B49C1F81C018148D0F8F5
:104DE0002401D0BB8F48008842F2117188423BD128
:104DF000401C8C49088037E08848008804282DD161
:104E000087480088012829D17648D0F82401012854
:104E100016D18448008828B18248008842F2127175
:104E200088420DD100208149088041F271707D498E
:104E3000088000206B49C1F81C017249C1F81C01AF
:104E40006848D0F8240140B97648008842F21171D0
:104E5000884209D1401C7349088005E06F480088EA
:104E600010B900206F4908806D48008860B90020A3
:104E70005C49C1F824016349C1F824015949C1F8CA
:104E80001C016049C1F81C015648D0F8240130B912
:104E900000205449C1F81C015A49C1F81C0151486D
:104EA000D0F82401D0B9624800881E2816DA002004
:104EB0005C4908805E480088401C5D4908800020ED
:104EC000464908805B4908605B4908605B49088087
:104ED0005B4908805B4908805B4908804148D0F8FD
:104EE0002401012802D10020514908805748008838
:104EF000022814D14C484089012810D15448006838
:104F000080103849C1F8540252480068C1F87C0248
:104F100042F210704349088000204F490880414800
:104F2000008842F2293188421FD12E48D0F87C02F5
:104F300048490968441A2B48D0F854024449096882
:104F4000A0EBA10540F271204543ED12604305EB53
:104F500000103849086042F22A30324908800020A7
:104F6000384908803549088055E22E48008841F6C6
:104F70005931884205D02B48008841F2717188422E
:104F80006CD11848D0F82841E40242F29F4094FBCB
:104F9000F0F000B21149088042F29F4094FBF0F11A
:104FA00000FB114021490988084400B21F490880CC
:104FB0000846B0F9000042F29F41884255DD07489B
:104FC0000088401C00B2054908801848008846E067
:104FD000142E00202C2E0020282E0020142D00201E
:104FE0000E2E0020902F0020122E0020102E0020C8
:104FF000182E0020202E00201C2E0020242E002001
:10500000262E0020B0320020402B0020A42D0020AE
:10501000702B0020382B0020302B0020862E002003
:105020008C2C00208E2E0020D22C0020962E0020CA
:10503000A42E00209C2E0020A02E00209A2E0020BE
:10504000982E0020942E0020922E00208A2E0020E0
:10505000602E0020682E0020902E00203DE0A0F55C
:1050600010509F3800B2FE490880FD48B0F900009A
:10507000FC4988420DDAFC480088401E00B2FA491B
:105080000880F748008842F29F41084400B2F44982
:1050900008800120F549C1F81C01F549C1F81C013F
:1050A000F248D0F82801002808DDF24800890128DC
:1050B00004D1F1480088401CEF490880EB48D0F843
:1050C0002801002808DAEB484089012804D1EA4881
:1050D0000088401CE84908809DE1E748008841F6C7
:1050E0005A31884205D0E448008841F27271884202
:1050F0005ED1DE48D0F82801002823DDDD48008994
:1051000001281FD1D848B0F90000002802DD002096
:10511000D5490880D948006810F1140F0FDDD74831
:10512000006814280BDAD648008847F230518842CC
:1051300008DAD3480088401CD149088002E00020EA
:10514000CF490880C948D0F82801002823DAC94887
:10515000408901281FD1C448B0F90000002802DAB4
:105160000020C1490880C548006810F1140F0FDD08
:10517000C248006814280BDAC148008847F2305151
:10518000884208DABE480088401CBD49088002E019
:105190000020BB490880BA480088C82807DDB64807
:1051A0000088401CB44908800020B549088032E1DD
:1051B000B148008841F65B31884219D1AB48D0F83C
:1051C0002801002806DDAF4800684042AE49096862
:1051D000441806E0AB480068AB490968401AC0F5BE
:1051E0000034AA48046042F22A30A349088012E140
:1051F000A148008841F2737188423CD19B48D0F8A5
:105200002801002809DD9948D0F8480140420521CD
:1052100090FBF1F000B2944908809448D0F828013E
:10522000002808DA9148D0F84801052190FBF1F0F8
:1052300000B28D49088001208C49C1F81C018C49BD
:10524000C1F81C018948D0F82801002806DD8948EA
:10525000008918B942F21070874908808348D0F855
:105260002801002840DA83484089E8BB42F21070E8
:1052700081490880CFE08048008842F22A31884284
:1052800032D182480068002805DA80480068404230
:105290007F49086003E07D4800687D4908607C48DC
:1052A00000687C49884242D97048D0F82002052124
:1052B00090FBF1F0784908806C48D0F82002052175
:1052C00090FBF1F201FB120074490988084473490C
:1052D00008800846008805280ADB08460088401F29
:1052E00008806D48008800E095E0401C6A4908800D
:1052F0006648006800280CDD6748008800B25A49FB
:1053000008806248006864490988401A5F4908605B
:1053100081E061480088404200B2534908805B4800
:1053200000685D49098808445849086073E04F489F
:10533000D0F81C024D49D1F82012884204DA4B48BB
:10534000B0F81C0207B203E04848B0F8200207B2E8
:10535000052097FBF0F052490880052097FBF0F1FB
:1053600000FB11704F49098808444E4908800846DF
:105370000088052808DB08460088401F0880484848
:105380000088401C46490880414800684449098813
:10539000884222D83D48006800280CDD3C4800883F
:1053A00000B2314908803948006839490968401A13
:1053B000364908600CE036480088404200B22A496D
:1053C0000880324800683249096808442F4908605B
:1053D00042F21070284908801DE02C48006800281F
:1053E0000CDD2F48008800B21F490880274800685C
:1053F0002B490988401A254908600CE02848008894
:10540000404200B2184908802048006824490988B1
:1054100008441E49086018480088012811D1224814
:10542000008838B120480088022803D01E48008830
:10543000042803D102201049088002E003200E490D
:1054400008800D48008802286ED10848D0F8200254
:105450003C2190FBF1F010490880044826E0000050
:10546000962E002061DBFFFF142D0020902F0020DE
:10547000B0320020BE2C00208E2E0020A82E00204E
:10548000A62E0020602E0020702E00209C2E0020D2
:10549000A02E0020D0FB0100922E0020942E002090
:1054A000982E00209A2E0020882E0020D0F820026E
:1054B0003C2190FBF1F201FB1200FE4909880844EF
:1054C000FC490880084600883C2808DB084600881C
:1054D0003C380880F8480088401CF7490880F648A6
:1054E000008800B2F54908800020F5490880F54899
:1054F000008830B9F4484089012802D10A20F349D4
:105500000880F0480088022806D1F1480089012867
:1055100002D10A20ED490880EA48008804284FD1CA
:105520000A20EA4908804BE0E8480088032847D170
:10553000E848D0F820023C2190FBF1F0DE490880D9
:10554000E448D0F820023C2190FBF1F201FB12006C
:10555000D84909880844D7490880084600883C286B
:1055600008DB084600883C380880D3480088401C87
:10557000D1490880D0480088404200B2CF49088015
:105580000020CF490880CF480088012806D1CE48A6
:105590004089012802D11420CC490880C9480088DC
:1055A000032806D1CA484089012802D11420C749DE
:1055B0000880C4480088052802D11420C349088007
:1055C000C24800880A2854D1C248D0F81C02C149F8
:1055D000D1F82012884204DABE48B0F81C0207B2A3
:1055E00003E0BC48B0F8200207B23C2097FBF0F083
:1055F000B94908803C2097FBF0F100FB1170B749D6
:1056000009880844B5490880084600883C2808DB1A
:10561000084600883C380880AF480088401CAE49E6
:105620000880AF48008868B9AB480088404200B2A3
:10563000A2490880A248008801281AD11F20A34946
:10564000088016E0A648008801280CD1A2480088EE
:1056500000B29A4908809A480088012809D11F2081
:105660009A49088005E00020944908801F20974946
:10567000088096480088142854D19648D0F81C0217
:105680009449D1F82012884204DA9248B0F81C02FA
:1056900007B203E08F48B0F8200207B23C2097FB26
:1056A000F0F08D4908803C2097FBF0F100FB117071
:1056B0008A490988084489490880084600883C28A6
:1056C00008DB084600883C38088083480088401C76
:1056D000814908808248008860B97F48008800B20C
:1056E000764908807648008801281BD11F20774919
:1056F000088017E07A48008801280DD17648008894
:10570000404200B26D4908806D480088012809D1E7
:105710001F206E49088005E01F206C49088000208A
:105720006649088069480088B0F57A7F2BDA6748B7
:1057300000881E2827DD00206A4908806A49088001
:105740006A4908806A4908806A4908806A4908608D
:105750006A4908606A4908606A4908606A490860DD
:105760006A4908606A4908606A49086053490880C4
:1057700069490860694908606949086053480088B8
:10578000401C5249088051480088B0F57A7F25D1E5
:1057900053480088022816DA6248B0F9000041F246
:1057A0008831884206DA5F480088404200B24349A7
:1057B00008800BE05B48008842F21071081A00B2C2
:1057C0003E49088002E000203C49088042F2107007
:1057D0003E4908800020544908805BE03B4800882F
:1057E00042F21071884255D14F480088401C4E4902
:1057F00008800020314908803648D0F824024A4900
:105800000988884235DA334890F8DC0100F0080056
:10581000082804D1C1024548FBF744FE04E04FF4D8
:1058200080414248FBF740FE42F211702749088050
:105830002848D0F8280100280ADD254800890128D9
:1058400006D002202349C1F81C013949C1F81C01C6
:105850002048D0F8280100281CDA1D48408901287A
:1058600018D002201B49C1F81C013149C1F81C01A4
:1058700010E0184890F8DC0100F00800082804D176
:10588000C1022A48FBF710FE04E04FF4804127488C
:10589000FBF708FE0F48C06B0390039828B1074838
:1058A0000088404200B2054908800948408A012822
:1058B00045D13FE0942E0020922E0020142D002090
:1058C000382C0020882E0020D22C00208E2E002084
:1058D000BE2C0020902F0020982E00209A2E002011
:1058E0008A2E0020042E0020022E0020002E0020F0
:1058F000FE2D0020FC2D00203C2B0020402B002002
:10590000302B0020342B0020802B0020842B002003
:10591000482B0020DC2D0020AC2D0020A42D0020E1
:10592000A82D0020422C0020902E0020000C0140C9
:10593000B0320020F7480088012800D100BFF648A7
:10594000B0F90040F548B0F9000000FB04F9F44854
:10595000406B99FBF0F0F3490860F3480068096870
:105960000844F1490860EE48406B99FBF0F100FBF8
:1059700011901990ED48016819980844EB490860A6
:10598000E748406B096888420EDCE548406BE74910
:105990000968081AE5490860E3480068401CE249C4
:1059A00008600120029018E0DD48406B4042DF496A
:1059B000096888420FDBDA48406BDC490968084413
:1059C000DA490860D8480068401ED74908604FF09F
:1059D000FF30029001E0002002900AE0D248006807
:1059E000D349401AD0490860D2480068401CD149C8
:1059F0000860CD480068CE498842EFDA0AE0CA481C
:105A00000068CB490844C8490860CA480068401E7D
:105A1000C8490860C4480068C54949428842EEDD6B
:105A2000C44800684942884204DBC2480068401A02
:105A3000C0490860BF480068BD494942884205DC4A
:105A4000BC48006849420844BA490860B548016842
:105A50000298084400EB8004B148806A4443B64889
:105A60000068201AB54909680844B4490860AC4880
:105A7000C66A0846006890FBF6F0AF490860B04877
:105A80000088022873D1A648D0F82C01012821D122
:105A90000020AC490880AC48B0F90000642100FB4C
:105AA00001F4AA48006860439D49496F90FBF1F5F5
:105AB000E81200B2A64908809948846F1CB9A5482D
:105AC000808901281BD1A2480088404200B2A04929
:105AD000088014E09B48008801280DD19A48B0F94D
